:020000040800F2
:1000000000000120010D0008291E0008351E00080F
:100010003B1E0008411E0008471E000800000000AB
:100020000000000000000000000000004D1E00085D
:10003000591E000800000000651E0008711E00081F
:10004000510D0008510D0008510D0008510D000818
:10005000510D0008510D0008510D0008510D000808
:10006000510D0008510D0008510D0008510D0008F8
:10007000510D0008510D0008510D0008510D0008E8
:10008000510D0008510D0008510D0008510D0008D8
:10009000510D0008510D0008510D0008510D0008C8
:1000A000510D0008510D0008510D0008510D0008B8
:1000B000510D00080000000000000000510D000874
:1000C000510D00080000000000000000510D000864
:1000D00000000000510D0008510D00080000000054
:1000E000510D0008510D0008000000000000000044
:1000F0000000000000000000000000000000000000
:10010000000000000000000000000000510D000889
:100110000000000000000000510D0008510D000813
:10012000510D0008510D0008510D0008510D000837
:10013000510D000800000000000000000000000059
:10014000510D0008510D0008510D0008510D000817
:10015000510D0008510D0008510D0008510D000807
:10016000510D0008510D0008510D0008000000005D
:10017000510D0008510D00080000000000000000B3
:10018000510D0008510D0008510D0008000000003D
:1001900010B5054C237833B9044B13B10448AFF3C1
:1001A00000800123237010BDD80100200000000052
:1001B0004086000808B5034B1BB103490348AFF361
:1001C000008008BD00000000DC010020408600081F
:1001D00081F0004102E000BF83F0004330B54FEAF8
:1001E00041044FEA430594EA050F08BF90EA020F65
:1001F0001FBF54EA000C55EA020C7FEA645C7FEAF8
:10020000655C00F0E2804FEA5454D4EB5555B8BF1A
:100210006D420CDD2C4480EA020281EA030382EA8B
:10022000000083EA010180EA020281EA0303362D1D
:1002300088BF30BD11F0004F4FEA01314FF4801CF0
:100240004CEA113102D0404261EB410113F0004F02
:100250004FEA03334CEA133302D0524263EB4303B9
:1002600094EA050F00F0A780A4F10104D5F1200E57
:100270000DDB02FA0EFC22FA05F2801841F10001B2
:1002800003FA0EF2801843FA05F359410EE0A5F186
:1002900020050EF1200E012A03FA0EFC28BF4CF0B7
:1002A000020C43FA05F3C01851EBE37101F000456D
:1002B00007D54FF0000EDCF1000C7EEB00006EEB7A
:1002C0000101B1F5801F1BD3B1F5001F0CD3490804
:1002D0005FEA30004FEA3C0C04F101044FEA44525B
:1002E00012F5800F80F09A80BCF1004F08BF5FEAE2
:1002F000500C50F1000041EB045141EA050130BDC2
:100300005FEA4C0C404141EB0101013C28BFB1F5D3
:10031000801FE9D291F0000F04BF01460020B1FA1E
:1003200081F308BF2033A3F10B03B3F120020CDAF1
:100330000C3208DD02F1140CC2F10C0201FA0CF0CF
:1003400021FA02F10CE002F11402D8BFC2F1200C34
:1003500001FA02F120FA0CFCDCBF41EA0C019040EA
:10036000E41AA2BF01EB0451294330BD6FEA040433
:100370001F3C1CDA0C340EDC04F11404C4F120021E
:1003800020FA04F001FA02F340EA030021FA04F330
:1003900045EA030130BDC4F10C04C4F1200220FA87
:1003A00002F001FA04F340EA0300294630BD21FAC5
:1003B00004F0294630BD94F0000F83F4801306BF8B
:1003C00081F480110134013D4EE77FEA645C18BF7F
:1003D0007FEA655C29D094EA050F08BF90EA020F16
:1003E00005D054EA000C04BF1946104630BD91EA0E
:1003F000030F1EBF0021002030BD5FEA545C05D111
:100400004000494128BF41F0004130BD14F580044F
:100410003CBF01F5801130BD01F0004545F0FE41C3
:1004200041F470014FF0000030BD7FEA645C1ABFF8
:10043000194610467FEA655C1CBF0B46024650EA2F
:10044000013406BF52EA033591EA030F41F400215B
:1004500030BD00BF90F0000F04BF0021704730B5E1
:100460004FF4806404F132044FF000054FF00001B6
:1004700050E700BF90F0000F04BF0021704730B577
:100480004FF4806404F1320410F0004548BF40424C
:100490004FF000013EE700BF42004FEAE2014FEAA1
:1004A00031014FEA02701FBF12F07F4393F07F4F7C
:1004B00081F06051704732F07F4208BF704793F07F
:1004C0007F4F04BF41F40021704730B54FF4607492
:1004D00001F0004521F000411CE700BF50EA010295
:1004E00008BF704730B54FF000050AE050EA01023E
:1004F00008BF704730B511F0004502D5404261EBAE
:1005000041014FF4806404F132045FEA915C3FF4EE
:10051000D8AE4FF003025FEADC0C18BF03325FEA8B
:10052000DC0C18BF033202EBDC02C2F1200300FA3C
:1005300003FC20FA02F001FA03FE40EA0E0021FA61
:1005400002F11444BDE600BF034613F8012B002A54
:10055000FBD1181A013870470000000000000000AD
:1005600001F0FF01102A2BDB10F0070F08D010F864
:10057000013B013A8B422DD010F0070F42B3F6D168
:10058000F0B441EA012141EA014122F007047FF081
:1005900000070023F0E80256083C85EA010586EAD8
:1005A000010685FA47F5A3FA87F586FA47F6A5FA14
:1005B00087F68EB9EED1F0BC01F0FF0102F0070220
:1005C00032B110F8013B013A83EA010313B1F8D1CB
:1005D0000020704701387047002D06BF35460338AC
:1005E000073815F0010F07D1013015F4807F02BFE5
:1005F000013015F4C03F0130F0BC0138704700BF36
:1006000070B54FF0FF0C4CF4E06C1CEA11541DBFA8
:100610001CEA135594EA0C0F95EA0C0F00F0DEF873
:100620002C4481EA030621EA4C5123EA4C5350EA58
:10063000013518BF52EA033541F4801143F48013A9
:1006400038D0A0FB02CE4FF00005E1FB02E506F03A
:100650000042E0FB03E54FF00006E1FB03569CF08F
:10066000000F18BF4EF0010EA4F1FF04B6F5007F95
:1006700064F5407404D25FEA4E0E6D4146EB060607
:1006800042EAC62141EA55514FEAC52040EA5E5090
:100690004FEACE2EB4F1FD0C88BFBCF5E06F1ED83A
:1006A000BEF1004F08BF5FEA500E50F1000041EB71
:1006B000045170BD06F0004646EA010140EA02001E
:1006C00081EA0301B4EB5C04C2BFD4EB0C0541EA40
:1006D000045170BD41F480114FF0000E013C00F355
:1006E000AB8014F1360FDEBF002001F0004170BD79
:1006F000C4F10004203C35DA0C341BDC04F1140492
:10070000C4F1200500FA05F320FA04F001FA05F21D
:1007100040EA020001F0004221F0004110EBD370EA
:1007200021FA04F642EB06015EEA430E08BF20EA16
:10073000D37070BDC4F10C04C4F1200500FA04F3B9
:1007400020FA05F001FA04F240EA020001F000414B
:1007500010EBD37041F100015EEA430E08BF20EABE
:10076000D37070BDC4F1200500FA05F24EEA020E06
:1007700020FA04F301FA05F243EA020321FA04F035
:1007800001F0004121FA04F220EA020000EBD370EC
:100790005EEA430E08BF20EAD37070BD94F0000FEC
:1007A0000FD101F00046400041EB010111F4801F20
:1007B00008BF013CF7D041EA060195F0000F18BFD1
:1007C000704703F00046520043EB030313F4801F0D
:1007D00008BF013DF7D043EA0603704794EA0C0FC7
:1007E0000CEA135518BF95EA0C0F0CD050EA4106DD
:1007F00018BF52EA4306D1D181EA030101F000415A
:100800004FF0000070BD50EA410606BF1046194681
:1008100052EA430619D094EA0C0F02D150EA01368D
:1008200013D195EA0C0F05D152EA03361CBF1046CE
:1008300019460AD181EA030101F0004141F0FE416D
:1008400041F470014FF0000070BD41F0FE4141F4F1
:10085000780170BD70B54FF0FF0C4CF4E06C1CEAF1
:1008600011541DBF1CEA135594EA0C0F95EA0C0FA6
:1008700000F0A7F8A4EB050481EA030E52EA033561
:100880004FEA013100F088804FEA03334FF0805582
:1008900045EA131343EA12634FEA022245EA1115AF
:1008A00045EA10654FEA00260EF000419D4208BF60
:1008B000964244F1FD0404F5407402D25B084FEA0D
:1008C0003202B61A65EB03055B084FEA32024FF4B9
:1008D00080104FF4002CB6EB020E75EB030E22BF16
:1008E000B61A754640EA0C005B084FEA3202B6EBD6
:1008F000020E75EB030E22BFB61A754640EA5C0085
:100900005B084FEA3202B6EB020E75EB030E22BF14
:10091000B61A754640EA9C005B084FEA3202B6EB15
:10092000020E75EB030E22BFB61A754640EADC00D4
:1009300055EA060E18D04FEA051545EA16754FEA36
:1009400006164FEAC30343EA52734FEAC2025FEA54
:100950001C1CC0D111F4801F0BD141EA00014FF0E3
:1009600000004FF0004CB6E711F4801F04BF0143B4
:100970000020B4F1FD0C88BFBCF5E06F3FF6AFAED0
:10098000B5EB030C04BFB6EB020C5FEA500C50F160
:10099000000041EB045170BD0EF0004E4EEA1131E3
:1009A00014EB5C04C2BFD4EB0C0541EA045170BDEA
:1009B00041F480114FF0000E013C90E645EA060E2E
:1009C0008DE60CEA135594EA0C0F08BF95EA0C0F5C
:1009D0003FF43BAF94EA0C0F0AD150EA01347FF4A4
:1009E00034AF95EA0C0F7FF425AF104619462CE77B
:1009F00095EA0C0F06D152EA03353FF4FDAE1046DE
:100A0000194622E750EA410618BF52EA43067FF42E
:100A1000C5AE50EA41047FF40DAF52EA43057FF4BE
:100A2000EBAE12E74FF0FF3C06E000BF4FF0010CC9
:100A300002E000BF4FF0010C4DF804CD4FEA410C2D
:100A40007FEA6C5C4FEA430C18BF7FEA6C5C1BD0FA
:100A500001B050EA410C0CBF52EA430C91EA030F7B
:100A600002BF90EA020F0020704710F1000F91EAD8
:100A7000030F58BF994208BF90422CBFD8176FEAA6
:100A8000E37040F0010070474FEA410C7FEA6C5C74
:100A900002D150EA013C07D14FEA430C7FEA6C5C7B
:100AA000D6D152EA033CD3D05DF8040B704700BFA7
:100AB0008446104662468C461946634600E000BFF5
:100AC00001B5FFF7B7FF002848BF10F1000F01BDC7
:100AD0004DF808EDFFF7F4FF0CBF012000205DF892
:100AE00008FB00BF4DF808EDFFF7EAFF34BF012017
:100AF00000205DF808FB00BF4DF808EDFFF7E0FFB0
:100B000094BF012000205DF808FB00BF4DF808ED00
:100B1000FFF7CEFF94BF012000205DF808FB00BF67
:100B20004DF808EDFFF7C4FF34BF012000205DF849
:100B300008FB00BF4FEA410C7FEA6C5C02D150EA2F
:100B4000013C0AD14FEA430C7FEA6C5C02D152EAC5
:100B5000033C02D14FF0000070474FF00100704796
:100B60004FEA410212F5001215D211D56FF47873D5
:100B7000B3EB625212D94FEAC12343F0004343EA78
:100B8000505311F0004F23FA02F018BF4042704753
:100B90004FF00000704750EA013005D111F00040DD
:100BA00008BF6FF0004070474FF00000704700BF73
:100BB0004A0011D212F5001211D20DD56FF47873DC
:100BC000B3EB62520ED44FEAC12343F0004343EA31
:100BD000505323FA02F070474FF00000704750EA7C
:100BE000013002D14FF0FF3070474FF000007047E6
:100BF0004FEA4102B2F1E04324BFB3F5001CDCF13F
:100C0000FE5C0DD901F0004C4FEAC0024CEA507076
:100C1000B2F1004F40EB830008BF20F001007047A5
:100C200011F0804F21D113F13872BCBF01F00040A8
:100C3000704741F480114FEA5252C2F11802C2F1DA
:100C4000200C10FA0CF320FA02F018BF40F001005B
:100C50004FEAC1234FEAD32303FA0CFC40EA0C000D
:100C600023FA02F34FEA4303CCE77FEA625307D14A
:100C700050EA01331EBF4FF0FE4040F44000704781
:100C800001F0004040F0FE4040F40000704700BF1B
:100C900038B505460C462846214600220023FFF7BA
:100CA00021FF28B928462146BDE8384000F00AB89F
:100CB000284604F1004100F005F8404261EB410193
:100CC00038BD00BFD0B50C4B002206460F46FFF7DB
:100CD00097FCFFF76DFF0446FFF7BCFB074B0022B4
:100CE000FFF78EFC02460B4630463946FFF774FA92
:100CF000FFF75EFF2146D0BD0000F03D0000F0414F
:100D0000DFF834D0002103E00C4B5B584350043132
:100D10000B480C4B42189A42F6D30B4A02E00023D0
:100D200042F8043B094B9A42F9D301F0A9F803F0C9
:100D300017F800F089FEFEE700000120988C0008FB
:100D400000000020D8010020D801002074020020FB
:100D5000FEE7000080B586B002AF0346FB710A23B0
:100D6000FB60FB7903F00F03FB72FB791B09BB727D
:100D7000BB7A1B015BB243F00C035BB2DBB27B724C
:100D800007F109026423009301234E21244801F056
:100D90001BFCFB68184601F0F3F8BB7A1B015BB241
:100DA00043F008035BB2DBB27B7207F109026423F4
:100DB000009301234E211A4801F006FCFB681846F7
:100DC00001F0DEF8FB7A1B015BB243F00C035BB26F
:100DD000DBB27B7207F109026423009301234E21E9
:100DE0000F4801F0F1FBFB68184601F0C9F8FB7AE7
:100DF0001B015BB243F008035BB2DBB27B7207F10D
:100E000009026423009301234E21054801F0DCFB15
:100E1000FB68184601F0B4F800BF1037BD4680BD2E
:100E20000402002080B586B002AF0346FB710123A7
:100E3000FB60FB7903F00F03FB72FB791B09BB72AC
:100E4000BB7A1B015BB243F00D035BB2DBB27B727A
:100E500007F109024FF0FF33009301234E2126488A
:100E600001F0B2FBFB68184601F08AF8BB7A1B015F
:100E70005BB243F009035BB2DBB27B7207F109029C
:100E80004FF0FF33009301234E211B4801F09CFBE0
:100E9000FB68184601F074F8FB7A1B015BB243F063
:100EA0000D035BB2DBB27B7207F109024FF0FF3337
:100EB000009301234E21104801F086FBFB68184681
:100EC00001F05EF8FB7A1B015BB243F009035BB2F1
:100ED000DBB27B7207F109024FF0FF33009301236D
:100EE0004E21054801F070FBFB68184601F048F8F8
:100EF00000BF1037BD4680BD0402002080B584B01D
:100F000000AF786039607B681B885BB23B737B689D
:100F10001B881B0A9BB25BB27B733B6893F9013061
:100F20003B723B6893F900307B7207F1080107F1CF
:100F30000C030222184603F0CFFD0346002B01D01C
:100F4000012300E0002318461037BD4680BD000095
:100F500080B500AF962001F013F83320FFF7FAFEBA
:100F60003220FFF7F7FE2820FFF7F4FE074B0F2291
:100F70001A70064B1B781846FFF7ECFE0120FFF7AE
:100F8000E9FE0620FFF7E6FE00BF80BD000200205C
:100F900080B584B000AF78600023FB730023BB8171
:100FA0000023FB724DE00023BB7223E0BB89FA7A79
:100FB00079680A4492F9002013431B021AB2FB7AA3
:100FC000013379680B4493F900301BB2DBB21BB2DA
:100FD00013431BB2BB81BB7A204A32F81330BA8963
:100FE0009A4202D10123FB7307E00023BB81BB7A45
:100FF0000133BB72BB7A072BD8D9BB891B0A9BB2C2
:101000005BB23B72BB895BB27B72FB7B002B09D16D
:10101000FB7A7A68134493F90030DBB21846FFF785
:1010200001FF09E007F10803184600F03DF800232E
:10103000FB73FB7A0133FB720023BB81FB7A013324
:10104000FB72FB7A7A68134493F90030002BAAD123
:1010500000BF00BF1037BD4680BD00BF500200205A
:1010600080B500AF064B1B7823F00203DAB2044BC5
:101070001A70034B1B781846FFF76CFE00BF80BD4B
:101080000002002080B500AF064B1B7823F001035F
:10109000DAB2044B1A70034B1B781846FFF75AFE5E
:1010A00000BF80BD0002002080B584B000AF786032
:1010B0000023FB7313E0FB7B5B000D4A134479684C
:1010C0001846FFF71BFF0346002B04D1FB7B184695
:1010D000FFF7A8FE00E000BFFB7B0133FB73FB7B47
:1010E000072BE8D900BF00BF1037BD4680BD00BF49
:1010F0005002002080B58CB000AFF860B9607A6013
:101100003B60002387F82F305EE297F82F305B00BA
:1011100007F130021344002223F8202C97F82F30D7
:10112000002B45D197F82F305B0007F130021344B4
:1011300033F8203C1AB2FB6893F900301BB213431A
:101140001AB297F82F3092B25B0007F130010B44CE
:1011500023F8202C97F82F305B0007F1300213445E
:1011600033F8202C97F82F30120292B25B0007F16F
:1011700030010B4423F8202C97F82F305B0007F147
:101180003002134433F8203C1AB2FB68013393F960
:1011900000301BB2DBB21BB213431AB297F82F30E8
:1011A00092B25B0007F130010B4423F8202C06E2D9
:1011B00097F82F30012B45D197F82F305B0007F1BE
:1011C0003002134433F8203C1AB2BB6893F9003064
:1011D0001BB213431AB297F82F3092B25B0007F19B
:1011E00030010B4423F8202C97F82F305B0007F1D7
:1011F0003002134433F8202C97F82F30120292B2A9
:101200005B0007F130010B4423F8202C97F82F30B6
:101210005B0007F13002134433F8203C1AB2BB687C
:10122000013393F900301BB2DBB21BB213431AB285
:1012300097F82F3092B25B0007F130010B4423F88E
:10124000202CBCE197F82F30022B45D197F82F3096
:101250005B0007F13002134433F8203C1AB27B687C
:1012600093F900301BB213431AB297F82F3092B2A1
:101270005B0007F130010B4423F8202C97F82F3046
:101280005B0007F13002134433F8202C97F82F301D
:10129000120292B25B0007F130010B4423F8202CBC
:1012A00097F82F305B0007F13002134433F8203CED
:1012B0001AB27B68013393F900301BB2DBB21BB268
:1012C00013431AB297F82F3092B25B0007F1300146
:1012D0000B4423F8202C72E197F82F30032B45D1D3
:1012E00097F82F305B0007F13002134433F8203CAD
:1012F0001AB23B6893F900301BB213431AB297F845
:101300002F3092B25B0007F130010B4423F8202C00
:1013100097F82F305B0007F13002134433F8202C8C
:1013200097F82F30120292B25B0007F130010B44A4
:1013300023F8202C97F82F305B0007F1300213447C
:1013400033F8203C1AB23B68013393F900301BB2EA
:10135000DBB21BB213431AB297F82F3092B25B0084
:1013600007F130010B4423F8202C28E197F82F30A7
:10137000042B45D197F82F305B0007F1300213445E
:1013800033F8203C1AB2BB6B93F900301BB2134305
:101390001AB297F82F3092B25B0007F130010B447C
:1013A00023F8202C97F82F305B0007F1300213440C
:1013B00033F8202C97F82F30120292B25B0007F11D
:1013C00030010B4423F8202C97F82F305B0007F1F5
:1013D0003002134433F8203C1AB2BB6B013393F94B
:1013E00000301BB2DBB21BB213431AB297F82F3096
:1013F00092B25B0007F130010B4423F8202CDEE0B1
:1014000097F82F30052B45D197F82F305B0007F167
:101410003002134433F8203C1AB2FB6B93F90030CE
:101420001BB213431AB297F82F3092B25B0007F148
:1014300030010B4423F8202C97F82F305B0007F184
:101440003002134433F8202C97F82F30120292B256
:101450005B0007F130010B4423F8202C97F82F3064
:101460005B0007F13002134433F8203C1AB2FB6BE7
:10147000013393F900301BB2DBB21BB213431AB233
:1014800097F82F3092B25B0007F130010B4423F83C
:10149000202C94E097F82F30062B45D197F82F3069
:1014A0005B0007F13002134433F8203C1AB23B6C66
:1014B00093F900301BB213431AB297F82F3092B24F
:1014C0005B0007F130010B4423F8202C97F82F30F4
:1014D0005B0007F13002134433F8202C97F82F30CB
:1014E000120292B25B0007F130010B4423F8202C6A
:1014F00097F82F305B0007F13002134433F8203C9B
:101500001AB23B6C013393F900301BB2DBB21BB251
:1015100013431AB297F82F3092B25B0007F13001F3
:101520000B4423F8202C4AE097F82F30072B45D1A5
:1015300097F82F305B0007F13002134433F8203C5A
:101540001AB27B6C93F900301BB213431AB297F8AE
:101550002F3092B25B0007F130010B4423F8202CAE
:1015600097F82F305B0007F13002134433F8202C3A
:1015700097F82F30120292B25B0007F130010B4452
:1015800023F8202C97F82F305B0007F1300213442A
:1015900033F8203C1AB27B6C013393F900301BB254
:1015A000DBB21BB213431AB297F82F3092B25B0032
:1015B00007F130010B4423F8202C00E000BF97F81E
:1015C0002F30013387F82F3097F82F30072B7FF615
:1015D0009CAD002387F82E3011E097F82E3097F855
:1015E0002E205B0007F130010B4433F8201CD54B53
:1015F00023F8121097F82E30013387F82E3097F821
:101600002E30072BE9D94020FFF7A4FB002387F8F1
:101610002D3006E297F82D3007F110025B001344DD
:10162000C9491846FFF76AFC0346002B17D100236F
:1016300087F82C300EE097F82C30C44AD35C18465B
:10164000FFF7F0FB012000F09BFC97F82C300133F2
:1016500087F82C3097F82C30072BECD9DCE197F881
:101660002D3007F110025B001344B9491846FFF70B
:1016700045FC0346002B17D1002387F82B300EE0E2
:1016800097F82B30B34AD35C1846FFF7CBFB012009
:1016900000F076FC97F82B30013387F82B3097F861
:1016A0002B30072BECD9B7E197F82D3007F110025A
:1016B0005B001344A8491846FFF720FC0346002BA3
:1016C00017D1002387F82A300EE097F82A30A34A72
:1016D000D35C1846FFF7A6FB012000F051FC97F8F9
:1016E0002A30013387F82A3097F82A30072BECD9B3
:1016F00092E197F82D3007F110025B0013449849EE
:101700001846FFF7FBFB0346002B17D1002387F891
:1017100029300EE097F82930924AD35C1846FFF73B
:1017200081FB012000F02CFC97F82930013387F869
:10173000293097F82930072BECD96DE197F82D3037
:1017400007F110025B00134487491846FFF7D6FBE8
:101750000346002B17D1002387F828300EE097F8B6
:101760002830824AD35C1846FFF75CFB012000F06A
:1017700007FC97F82830013387F8283097F828308D
:10178000072BECD948E197F82D3007F110025B00E8
:10179000134477491846FFF7B1FB0346002B17D1D6
:1017A000002387F827300EE097F82730714AD35C82
:1017B0001846FFF737FB012000F0E2FB97F82730CF
:1017C000013387F8273097F82730072BECD923E12E
:1017D00097F82D3007F110025B0013446649184654
:1017E000FFF78CFB0346002B17D1002387F8263028
:1017F0000EE097F82630614AD35C1846FFF712FBDB
:10180000012000F0BDFB97F82630013387F8263021
:1018100097F82630072BECD9FEE097F82D3007F12A
:1018200010025B00134456491846FFF767FB034656
:10183000002B17D1002387F825300EE097F82530CC
:10184000504AD35C1846FFF7EDFA012000F098FBF0
:1018500097F82530013387F8253097F82530072B86
:10186000ECD9D9E097F82D3007F110025B00134452
:1018700045491846FFF742FB0346002B17D10023CA
:1018800087F824300EE097F82430404AD35C18469D
:10189000FFF7C8FA012000F073FB97F824300133FA
:1018A00087F8243097F82430072BECD9B4E097F868
:1018B0002D3007F110025B00134435491846FFF73D
:1018C0001DFB0346002B17D1002387F823300EE0C1
:1018D00097F823302F4AD35C1846FFF7A3FA01206C
:1018E00000F04EFB97F82330013387F8233097F848
:1018F0002330072BECD98FE097F82D3007F1100239
:101900005B00134424491846FFF7F8FA0346002BFE
:1019100046D1002387F822300EE097F822301F4A84
:10192000D35C1846FFF77EFA012000F029FB97F8F8
:101930002230013387F8223097F82230072BECD978
:101940006AE000BF5002002064860008D0860008CC
:1019500068860008D88600086C860008E0860008C3
:1019600070860008E886000874860008F086000883
:1019700078860008F88600087C8600081087000832
:1019800080860008188700088486000808870008F9
:1019900088860008208700088C86000828870008B1
:1019A00097F82D3007F110025B00134423491846C5
:1019B000FFF7A4FA0346002B17D1002387F8213044
:1019C0000EE097F821301E4AD35C1846FFF72AFA3A
:1019D000012000F0D5FA97F82130013387F8213043
:1019E00097F82130072BECD916E0002387F8203038
:1019F0000EE097F82030134AD35C1846FFF712FA2E
:101A0000012000F0BDFA97F82030013387F820302C
:101A100097F82030072BECD997F82D30013387F851
:101A20002D3097F82D30072B7FF6F4AD0120FFF70E
:101A300091F900BF3037BD4680BD00BF90860008D9
:101A4000008700083087000880B584B004AF00F03C
:101A500043FA00F02FF800F0F1F800F0A7F8FFF7D4
:101A600077FAFFF7FDFAFFF70DFB094B0393094BDC
:101A70000293094B0193094B0093094B094A0A4908
:101A80000A48FFF737FB0A48FFF782FAFEE700BF74
:101A9000A4860008A8860008AC860008B086000866
:101AA00094860008988600089C860008A086000896
:101AB000B486000880B5ACB000AF1023FB660123EC
:101AC000C7F884300023C7F888306023C7F88C300B
:101AD0000223C7F894300123C7F898300123C7F8D0
:101AE0009C301023C7F8A0300723C7F8A430022386
:101AF000C7F8A8300223C7F8AC3007F16C031846CA
:101B000001F0BEF80346002B03D09E21254800F0CB
:101B100007F90F23BB650323FB6500233B66002306
:101B20007B660023BB6607F158030121184601F0CC
:101B30004DFC0346002B03D0AC211A4800F0F0F80E
:101B400040237B6000233B633B1D184601F022FECF
:101B50000346002B03D0B321124800F0E1F84FF404
:101B6000007001F039F80346002B03D0BA210D486C
:101B700000F0D6F801F0A4FD03460B4AA2FB0323B4
:101B80009B09184600F0F1FA042000F0FBFA00224D
:101B900000214FF0FF3000F0CCFA00BFB037BD4657
:101BA00080BD00BFC0860008D34D621080B500AF75
:101BB0001E4B1F4A1A601D4B1E4A5A601B4B0022C7
:101BC0009A601A4B0122DA60184B00221A61174BF7
:101BD00000225A61154B00229A61144B0022DA61EF
:101BE000124B00221A62114800F05EFC0346002BE3
:101BF00003D0D821104800F093F800210B4800F0E2
:101C000049FF0346002B03D0DF210B4800F088F882
:101C10000021064800F088FF0346002B03D0E62190
:101C2000054800F07DF800BF80BD00BF0402002021
:101C300000540040BB7C7000C086000880B58AB0AC
:101C400000AF334BDB6C324A43F00403D364304BB8
:101C5000DB6C03F004033B613B692D4BDB6C2C4ACE
:101C600043F00103D3642A4BDB6C03F00103FB60F8
:101C7000FB68274BDB6C264A43F00203D364244BFA
:101C8000DB6C03F00203BB60BB68214BDB6C204ABA
:101C900043F08003D3641E4BDB6C03F080037B6056
:101CA0007B684FF440437B610323BB610023FB61EE
:101CB00007F114031946174800F08CFA49F6FF1390
:101CC0007B610323BB610023FB6107F11403194609
:101CD0004FF0904000F07EFAFB237B610323BB6151
:101CE0000023FB6107F1140319460B4800F072FA58
:101CF00008237B610323BB610023FB6107F114030D
:101D00001946064800F066FA00BF2837BD4680BD78
:101D1000001002400008004800040048001C004871
:101D200080B483B000AF78603960FEE780B582B0E0
:101D300000AF244B1B6E234A43F001031366214B73
:101D40001B6E03F001037B607B681E4B9B6D1D4A7D
:101D500043F0805393651B4B9B6D03F080533B60B6
:101D60003B68032000F0DAF9002200216FF00B003D
:101D700000F0DFF9002200216FF00A0000F0D9F92D
:101D8000002200216FF0090000F0D3F900220021A9
:101D90006FF0040000F0CDF9002200216FF0030085
:101DA00000F0C7F9002200216FF0010000F0C1F936
:101DB000002200214FF0FF3000F0BBF900BF0837D0
:101DC000BD4680BD0010024080B588B000AF78608D
:101DD0007B681B68124A93421DD14FF4C063FB60BD
:101DE00012233B6101237B610323BB610423FB615D
:101DF00007F10C0319464FF0904000F0EBF9094B46
:101E00009B6D084A43F400139365064B9B6D03F4E6
:101E10000013BB60BB6800BF2037BD4680BD00BF5C
:101E2000005400400010024080B400AF00BFBD4627
:101E300080BC704780B400AFFEE780B400AFFEE71F
:101E400080B400AFFEE780B400AFFEE780B400AF1F
:101E500000BFBD4680BC704780B400AF00BFBD4628
:101E600080BC704780B400AF00BFBD4680BC7047E7
:101E700080B500AF00F06CF800F0A0F900BF80BDA5
:101E800080B400AF124B1B68114A43F0010313608A
:101E90000F4B00229A600E4B1B680D4A23F0A8538B
:101EA00023F4102313600A4B4FF48052DA60084B7E
:101EB0001B68074A23F480231360054B00229A61B4
:101EC000044B4FF000629A6000BFBD4680BC704773
:101ED0000010024000ED00E080B582B000AF0023AA
:101EE000FB71032000F01AF9002000F00DF8034602
:101EF000002B02D00123FB7101E0FFF717FFFB79F4
:101F000018460837BD4680BD80B584B000AF786004
:101F10000023FB730C4B1B680C4AA2FB03239B0999
:101F2000184600F022F90346002B02D00123FB7370
:101F300005E0002279684FF0FF3000F0FAF8FB7BF3
:101F400018461037BD4680BD00000020D34D6210FA
:101F500080B400AF044B1B680133034A136000BF19
:101F6000BD4680BC704700BF6002002080B400AF57
:101F7000024B1B681846BD4680BC704760020020BB
:101F800080B584B000AF7860FFF7F0FFB8607B6881
:101F9000FB60FB68B3F1FF3F02D0FB680133FB60DD
:101FA00000BFFFF7E3FF0246BB68D31AFA689A4204
:101FB000F7D800BF00BF1037BD4680BD80B485B0E4
:101FC00000AF78607B6803F00703FB600C4BDB68B5
:101FD000BB60BA684FF6FF031340BB60FB681A0290
:101FE000BB68134343F0BF6343F40033BB60044A50
:101FF000BB68D36000BF1437BD4680BC704700BFCC
:1020000000ED00E080B400AF044BDB681B0A03F076
:1020100007031846BD4680BC704700BF00ED00E0D6
:1020200080B483B000AF03463960FB7197F9073085
:10203000002B0BDA3B68DAB20C49FB7903F00F0393
:10204000043B1201D2B20B441A7609E03B68DAB2C3
:10205000074997F907301201D2B20B4483F80023E5
:1020600000BF0C37BD4680BC704700BF00ED00E0EC
:1020700000E100E080B489B000AFF860B9607A6038
:10208000FB6803F00703FB61FB69C3F10703042B43
:1020900028BF0423BB61FB690433062B02D9FB690B
:1020A000033B00E000237B614FF0FF32BB6902FA83
:1020B00003F3DA43BB681A407B699A404FF0FF3163
:1020C0007B6901FA03F3D9437B680B40134318463D
:1020D0002437BD4680BC704780B582B000AF7860C1
:1020E0007B68013BB3F1807F01D301230FE00A4AF3
:1020F0007B68013B53600F214FF0FF30FFF790FFEB
:10210000054B00229A60044B07221A6000231846F0
:102110000837BD4680BD00BF10E000E080B582B04A
:1021200000AF78607868FFF749FF00BF0837BD4609
:1021300080BD80B586B000AF0346B9607A60FB739E
:1021400000237B61FFF75EFF78617A68B968786980
:10215000FFF790FF024697F90F3011461846FFF738
:102160005FFF00BF1837BD4680BD80B582B000AFAD
:1021700078607868FFF7B0FF034618460837BD4619
:1021800080BD000080B483B000AF78607B68042B12
:1021900006D1094B1B68084A43F00403136005E0AD
:1021A000054B1B68044A23F00403136000BF0C377F
:1021B000BD4680BC704700BF10E000E080B500AFB6
:1021C00000F002F800BF80BD80B400AF00BFBD4684
:1021D00080BC704780B487B000AF7860396000235E
:1021E0007B6148E13B681A6801217B6901FA03F3CE
:1021F0001340FB60FB68002B00F03A813B685B6892
:10220000022B03D03B685B68122B23D17B69DA0871
:102210007B68083253F822303B617B6903F0070387
:102220009B000F2202FA03F3DB433A6913403B6140
:102230003B681A697B6903F007039B0002FA03F30A
:102240003A6913433B617B69DA087B680832396974
:1022500043F822107B681B683B617B695B000322AB
:1022600002FA03F3DB433A6913403B613B685B6866
:1022700003F003027B695B0002FA03F33A6913433C
:102280003B617B683A691A603B685B68012B0BD045
:102290003B685B68022B07D03B685B68112B03D05F
:1022A0003B685B68122B30D17B689B683B617B6924
:1022B0005B00032202FA03F3DB433A6913403B61FC
:1022C0003B68DA687B695B0002FA03F33A691343FF
:1022D0003B617B683A699A607B685B683B6101227D
:1022E0007B6902FA03F3DB433A6913403B613B68C5
:1022F0005B681B0903F001027B6902FA03F33A6988
:1023000013433B617B683A695A607B68DB683B61D9
:102310007B695B00032202FA03F3DB433A69134053
:102320003B613B689A687B695B0002FA03F33A6998
:1023300013433B617B683A69DA603B685B6803F092
:102340008053002B00F09480524B1B6E514A43F097
:10235000010313664F4B1B6E03F00103BB60BB68A8
:102360004D4A7B699B08023352F823303B617B69FD
:1023700003F003039B000F2202FA03F3DB433A69E5
:1023800013403B617B68B3F1904F0DD07B68434AAB
:10239000934207D07B68424A934201D1022304E072
:1023A000072302E0012300E000237A6902F0030220
:1023B000920093403A6913433B6137497B699B081C
:1023C00002333A6941F82320364B1B683B61FB68B6
:1023D000DB433A6913403B613B685B6803F480333D
:1023E000002B03D03A69FB6813433B612D4A3B69DC
:1023F00013602C4B5B683B61FB68DB433A6913401D
:102400003B613B685B6803F40033002B03D03A69FF
:10241000FB6813433B61234A3B695360214B9B6834
:102420003B61FB68DB433A6913403B613B685B6897
:1024300003F48013002B03D03A69FB6813433B611C
:10244000184A3B699360174BDB683B61FB68DB43D1
:102450003A6913403B613B685B6803F40013002B4F
:1024600003D03A69FB6813433B610E4A3B69D36072
:102470007B6901337B613B681A687B6922FA03F34D
:10248000002B7FF4AFAE00BF00BF1C37BD4680BC41
:10249000704700BF001002400000014000040048E7
:1024A000000800480004014080B582B000AF7860A9
:1024B0007B68002B01D1012381E07B6893F84130D8
:1024C000DBB2002B06D17B68002283F840207868BD
:1024D000FFF77AFC7B68242283F841207B681B6825
:1024E0001A687B681B6822F001021A607B685A68D0
:1024F0007B681B6822F070621A617B681B689A68AF
:102500007B681B6822F400429A607B68DB68012BC1
:1025100007D17B689A687B681B6842F400429A6026
:1025200006E07B689A687B681B6842F404429A6004
:102530007B68DB68022B04D17B681B684FF4006268
:102540005A607B681B685B687A68126843F00073A6
:1025500043F4004353607B681B68DA687B681B6840
:1025600022F40042DA607B681A697B685B6942EAA0
:1025700003017B689B691A027B681B680A43DA6067
:102580007B68D9697B681A6A7B681B680A431A6092
:102590007B681B681A687B681B6842F001021A603E
:1025A0007B6800225A647B68202283F841207B6884
:1025B00000221A637B68002283F842200023184619
:1025C0000837BD4680BD000080B588B002AFF86016
:1025D0007A601A460B467B8113463B81FB6893F871
:1025E0004130DBB2202B40F0DA80FB6893F84030BA
:1025F000012B01D10223D3E0FB68012283F84020A4
:10260000FFF7B4FC78617B690093192301224FF432
:102610000041F86800F0EFF80346002B01D00123D9
:10262000BEE0FB68212283F84120FB68102283F87A
:102630004220FB6800225A64FB687A685A62FB6891
:102640003A895A85FB6800225A63FB685B8D9BB20E
:10265000FF2B0ED9FB68FF221A85FB681B8DDAB2AF
:102660007989514B00934FF08073F86800F0E6F9D8
:102670006CE0FB685B8D9AB2FB681A85FB681B8D6A
:10268000DAB27989484B00934FF00073F86800F094
:10269000D5F95BE07A69396AF86800F0ECF803462E
:1026A000002B01D001237BE0FB685B6A1A78FB6892
:1026B0001B689A62FB685B6A5A1CFB685A62FB687B
:1026C0005B8D9BB2013B9AB2FB685A85FB681B8D00
:1026D000013B9AB2FB681A85FB685B8D9BB2002BAD
:1026E00034D0FB681B8D002B30D17B6900933B6A93
:1026F00000228021F86800F07EF80346002B01D00C
:1027000001234DE0FB685B8D9BB2FF2B0ED9FB686C
:10271000FF221A85FB681B8DDAB2798900230093AA
:102720004FF08073F86800F089F90FE0FB685B8D6B
:102730009AB2FB681A85FB681B8DDAB2798900238F
:1027400000934FF00073F86800F078F9FB685B8D38
:102750009BB2002B9ED17A69396AF86800F0CBF8F9
:102760000346002B01D001231AE0FB681B682022DE
:10277000DA61FB681B685968FB681A680B4B0B40F1
:102780005360FB68202283F84120FB68002283F815
:102790004220FB68002283F84020002300E002234F
:1027A00018461837BD4680BD0020008000E800FEB6
:1027B00080B483B000AF78607B681B689B6903F0CE
:1027C0000203022B03D17B681B6800229A627B689C
:1027D0001B689B6903F00103012B07D07B681B6812
:1027E0009A697B681B6842F001029A6100BF0C374E
:1027F000BD4680BC704780B584B000AFF860B9605A
:102800003B601346FB7122E03B68B3F1FF3F1ED0F3
:10281000FFF7ACFB0246BB69D31A3A689A4202D36F
:102820003B68002B13D1FB685B6C43F02002FB6814
:102830005A64FB68202283F84120FB68002283F859
:102840004220FB68002283F8402001230FE0FB6850
:102850001B689A69BB681340BA689A420CBF01238F
:102860000023DBB21A46FB799A42CDD000231846EA
:102870001037BD4680BD80B584B000AFF860B96048
:102880007A602CE07A68B968F86800F071F803465D
:10289000002B01D001232AE0BB68B3F1FF3F1ED01B
:1028A000FFF764FB02467B68D31ABA689A4202D3E8
:1028B000BB68002B13D1FB685B6C43F02002FB6804
:1028C0005A64FB68202283F84120FB68002283F8C9
:1028D0004220FB68002283F84020012307E0FB68C8
:1028E0001B689B6903F00203022BCBD1002318461F
:1028F0001037BD4680BD80B584B000AFF860B960C8
:102900007A6028E07A68B968F86800F031F8034620
:10291000002B01D0012326E0FFF728FB02467B684D
:10292000D31ABA689A4202D3BB68002B13D1FB6852
:102930005B6C43F02002FB685A64FB68202283F83A
:102940004120FB68002283F84220FB68002283F8C4
:102950004020012307E0FB681B689B6903F020030C
:10296000202BCFD1002318461037BD4680BD000074
:1029700080B584B000AFF860B9607A60FB681B680E
:102980009B6903F01003102B51D122E0BB68B3F117
:10299000FF3F1ED0FFF7EAFA02467B68D31ABA68F7
:1029A0009A4202D3BB68002B13D1FB685B6C43F0E7
:1029B0002002FB685A64FB68202283F84120FB68F0
:1029C000002283F84220FB68002283F84020012384
:1029D0002EE0FB681B689B6903F02003202BD5D1F8
:1029E000FB681B681022DA61FB681B682022DA6131
:1029F000F868FFF7DDFEFB681B685968FB681A681A
:102A00000D4B0B405360FB685B6C43F00402FB68AA
:102A10005A64FB68202283F84120FB68002283F877
:102A20004220FB68002283F84020012300E00023BD
:102A300018461037BD4680BD00E800FE80B485B062
:102A400000AFF8607B600B467B8113467B72FB68AE
:102A50001B685A68BB695B0D03F480610C4B0B4328
:102A6000DB4302EA03017B89C3F309027B7A1B047F
:102A700003F47F031A437B681A43BB691A43FB685C
:102A80001B680A435A6000BF1437BD4680BC7047BC
:102A9000FF63FF0380B483B000AF786039607B6868
:102AA00093F84130DBB2202B38D17B6893F840306B
:102AB000012B01D1022332E07B68012283F8402000
:102AC0007B68242283F841207B681B681A687B6836
:102AD0001B6822F001021A607B681B681A687B6819
:102AE0001B6822F480521A607B681B6819687B6837
:102AF0001B683A680A431A607B681B681A687B681F
:102B00001B6842F001021A607B68202283F8412092
:102B10007B68002283F84020002300E0022318464F
:102B20000C37BD4680BC704780B485B000AF78607C
:102B300039607B6893F84130DBB2202B39D17B6858
:102B400093F84030012B01D1022333E07B6801224E
:102B500083F840207B68242283F841207B681B682F
:102B60001A687B681B6822F001021A607B681B6888
:102B70001B68FB60FB6823F47063FB603B681B020F
:102B8000FA681343FB607B681B68FA681A607B680D
:102B90001B681A687B681B6842F001021A607B6838
:102BA000202283F841207B68002283F84020002304
:102BB00000E0022318461437BD4680BC7047000071
:102BC00080B400AF034B1B6803F4C0631846BD46D6
:102BD00080BC70470070004080B485B000AF786062
:102BE0007B68B3F5007F30D1224B1B6803F4C063D0
:102BF000B3F5007F38D01F4B1B6823F4C0631D4A18
:102C000043F4007313601C4B1B68322202FB03F376
:102C10001A4AA2FB03239B0C0133FB6002E0FB6812
:102C2000013BFB60134B5B6903F48063B3F5806F7A
:102C300002D1FB68002BF2D10E4B5B6903F4806379
:102C4000B3F5806F10D103230FE00A4B1B6803F428
:102C5000C063B3F5806F07D0064B1B6823F4C063D5
:102C6000044A43F480631360002318461437BD46BA
:102C700080BC7047007000400000002083DE1B43D2
:102C800080B588B000AF78607B68002B01D101234C
:102C900095E3A34B9B6803F00C03BB61A04BDB687F
:102CA00003F003037B617B681B6803F01003002BB8
:102CB00000F0DF80BB69002B07D0BB690C2B40F014
:102CC00086807B69012B40F08280954B1B6803F066
:102CD0000203002B05D07B689B69002B01D10123E7
:102CE0006DE37B681A6A8E4B1B6803F00803002BA8
:102CF00004D08B4B1B6803F0F00305E0884BD3F83E
:102D000094301B0903F0F003934223D27B681B6AC3
:102D1000184600F0DFFC0346002B01D001234EE3F0
:102D20007F4B1B687E4A43F0080313607C4B1B6893
:102D300023F0F0027B681B6A794913430B60784BE0
:102D40005B6823F47F427B68DB691B027449134391
:102D50004B6022E0724B1B68714A43F0080313601A
:102D60006F4B1B6823F0F0027B681B6A6C491343AE
:102D70000B606B4B5B6823F47F427B68DB691B0253
:102D8000674913434B607B681B6A184600F0A2FC3E
:102D90000346002B01D0012311E300F0F5FB0246AE
:102DA0005F4B9B681B0903F00F035E49CB5C03F08C
:102DB0001F0322FA03F35C4A13600020FFF7A4F814
:102DC0000346FB73FB7B002B52D0FB7BF7E27B6857
:102DD0009B69002B32D0524B1B68514A43F00103D0
:102DE0001360FFF7C3F8386108E0FFF7BFF8024649
:102DF0003B69D31A022B01D90323E0E2484B1B683D
:102E000003F00203002BF0D0454B1B68444A43F00B
:102E100008031360424B1B6823F0F0027B681B6AB7
:102E20003F4913430B603E4B5B6823F47F427B6852
:102E3000DB691B023A4913434B601AE0384B1B68AD
:102E4000374A23F001031360FFF790F8386108E078
:102E5000FFF78CF802463B69D31A022B01D90323F2
:102E6000ADE22F4B1B6803F00203002BF0D100E012
:102E700000BF7B681B6803F00103002B72D0BB69A5
:102E8000082B05D0BB690C2B0ED17B69032B0BD112
:102E9000234B1B6803F40033002B62D07B685B6814
:102EA000002B5ED101238AE27B685B68B3F5803F2B
:102EB00006D11B4B1B681A4A43F4803313601DE094
:102EC0007B685B68B3F5A02F0CD1154B1B68144AC7
:102ED00043F480231360124B1B68114A43F4803380
:102EE00013600BE00E4B1B680D4A23F48033136014
:102EF0000B4B1B680A4A23F4802313607B685B68D2
:102F0000002B1AD0FFF732F838610FE0FFF72EF8E8
:102F100002463B69D31A642B08D903234FE200BF52
:102F2000001002403887000800000020AE4B1B68EC
:102F300003F40033002BE9D014E0FFF717F83861F1
:102F400008E0FFF713F802463B69D31A642B01D956
:102F5000032334E2A44B1B6803F40033002BF0D1AD
:102F600000E000BF7B681B6803F00203002B60D009
:102F7000BB69042B05D0BB690C2B19D17B69022BD3
:102F800016D1994B1B6803F48063002B05D07B6836
:102F9000DB68002B01D1012311E2934B5B6823F026
:102FA000F8527B681B691B068F4913434B6040E056
:102FB0007B68DB68002B23D08B4B1B688A4A43F469
:102FC00080731360FEF7D2FF386108E0FEF7CEFF92
:102FD00002463B69D31A022B01D90323EFE1824B4E
:102FE0001B6803F48063002BF0D07F4B5B6823F0F9
:102FF000F8527B681B691B067B4913434B6018E042
:10300000794B1B68784A23F480731360FEF7AEFF98
:10301000386108E0FEF7AAFF02463B69D31A022B8B
:1030200001D90323CBE1704B1B6803F48063002BB1
:10303000F0D17B681B6803F00803002B3CD07B6851
:103040005B69002B1CD0684BD3F89430664A43F080
:103050000103C2F89430FEF789FF386108E0FEF7FB
:1030600085FF02463B69D31A022B01D90323A6E14F
:103070005D4BD3F8943003F00203002BEFD01BE03C
:10308000594BD3F89430584A23F00103C2F89430D6
:10309000FEF76CFF386108E0FEF768FF02463B6907
:1030A000D31A022B01D9032389E14F4BD3F8943073
:1030B00003F00203002BEFD17B681B6803F00403CD
:1030C000002B00F0A5800023FB77474B9B6D03F09E
:1030D0008053002B0DD1444B9B6D434A43F08053EA
:1030E0009365414B9B6D03F08053BB60BB6801232C
:1030F000FB773E4B1B6803F48073002B18D13B4BCE
:103100001B683A4A43F480731360FEF72FFF38615F
:1031100008E0FEF72BFF02463B69D31A022B01D9C8
:1031200003234CE1314B1B6803F48073002BF0D078
:103130007B689B68012B08D12B4BD3F890302A4A2F
:1031400043F00103C2F8903024E07B689B68052BB4
:1031500010D1254BD3F89030234A43F00403C2F832
:103160009030214BD3F890301F4A43F00103C2F84E
:1031700090300FE01C4BD3F890301B4A23F0010332
:10318000C2F89030184BD3F89030174A23F004035C
:10319000C2F890307B689B68002B16D0FEF7E6FEE5
:1031A00038610AE0FEF7E2FE02463B69D31A41F2BB
:1031B0008832934201D9032301E10B4BD3F89030BD
:1031C00003F00203002BEDD019E0FEF7CFFE3861CB
:1031D0000EE0FEF7CBFE02463B69D31A41F288327D
:1031E000934205D90323EAE000100240007000403A
:1031F000754BD3F8903003F00203002BE9D1FB7F2D
:10320000012B05D1704B9B6D6F4A23F08053936562
:103210007B681B6803F02003002B3CD07B685B6A53
:10322000002B1CD0684BD3F89830674A43F0010359
:10323000C2F89830FEF79AFE386108E0FEF796FE75
:1032400002463B69D31A022B01D90323B7E05E4B38
:10325000D3F8983003F00203002BEFD01BE05A4B59
:10326000D3F89830584A23F00103C2F89830FEF79B
:103270007DFE386108E0FEF779FE02463B69D31A0D
:10328000022B01D903239AE04F4BD3F8983003F077
:103290000203002BEFD17B689B6A002B00F08E802D
:1032A000BB690C2B00F088807B689B6A022B55D190
:1032B000454B1B68444A23F080731360FEF756FEAB
:1032C000386108E0FEF752FE02463B69D31A022B32
:1032D00001D9032373E03C4B1B6803F00073002B00
:1032E000F0D17B681B6B013B1A017B685B6B1B0297
:1032F0001A437B68DB6A1A437B68DB6B5B08013B24
:103300005B051A437B681B6C5B08013B5B061A4339
:103310007B689B6BDB062C491343CB602A4B1B68F5
:10332000294A43F080731360274BDB68264A43F039
:103330008073D360FEF71AFE386108E0FEF716FED0
:1033400002463B69D31A022B01D9032337E01E4BF7
:103350001B6803F00073002BF0D02FE01A4B1B68A2
:10336000194A23F080731360174B1B6803F0006346
:10337000002B05D1144BDB68134A23F00303D36001
:10338000114BDB68104A23F0887323F48033D36039
:10339000FEF7ECFD386108E0FEF7E8FD02463B6908
:1033A000D31A022B01D9032309E0074B1B6803F052
:1033B0000073002BF0D101E0012300E00023184648
:1033C0002037BD4680BD00BF0010024080B584B0EC
:1033D00000AF786039607B68002B01D10123C6E023
:1033E000654B1B6803F007033A689A4210D9624B99
:1033F0001B6823F0070260493B6813430B605E4B78
:103400001B6803F007033A689A4201D00123AEE03B
:103410007B681B6803F00103002B4CD07B685B6862
:10342000032B07D1554B1B6803F00073002B21D1F0
:1034300001239CE07B685B68022B07D14F4B1B6824
:1034400003F40033002B15D1012390E07B685B6807
:10345000002B07D1494B1B6803F00203002B09D155
:10346000012384E0454B1B6803F48063002B01D1EA
:1034700001237CE0414B9B6823F003027B685B687F
:103480003E4913438B60FEF771FDF8600AE0FEF7DA
:103490006DFD0246FB68D31A41F28832934201D98E
:1034A000032364E0354B9B6803F00C027B685B6888
:1034B0009B009A42EBD17B681B6803F00203002B50
:1034C00008D02E4B9B6823F0F0027B689B682B4949
:1034D00013438B60284B1B6803F007033A689A423A
:1034E00010D2254B1B6823F0070223493B68134386
:1034F0000B60214B1B6803F007033A689A4201D026
:10350000012334E07B681B6803F00403002B08D020
:103510001A4B9B6823F4E0627B68DB68174913430E
:103520008B607B681B6803F00803002B09D0134BEA
:103530009B6823F460527B681B69DB000F491343CF
:103540008B6000F021F802460C4B9B681B0903F0CE
:103550000F030B49CB5C03F01F0322FA03F3094A64
:1035600013600020FEF7D0FC0346FB72FB7A18467E
:103570001037BD4680BD00BF002002400010024051
:10358000388700080000002080B489B000AF002315
:10359000FB610023BB61464B9B6803F00C033B615E
:1035A000434BDB6803F00303FB603B69002B05D052
:1035B0003B690C2B21D1FB68012B1ED13C4B1B68B6
:1035C00003F00803002B07D1394BD3F894301B0AC2
:1035D00003F00F03FB6105E0354B1B681B0903F08B
:1035E0000F03FB61334AFB6952F82330FB613B69EF
:1035F000002B0DD1FB69BB610AE03B69042B02D1B2
:103600002D4BBB6104E03B69082B01D12B4BBB6107
:103610003B690C2B46D1264BDB6803F00303BB60F0
:10362000234BDB681B0903F0070301337B60BB6896
:10363000022B03D0BB68032B0DD019E01E4A7B6818
:10364000B2FBF3F31A4AD268120A02F07F0202FBBD
:1036500003F37B6119E0194A7B68B2FBF3F3144A68
:10366000D268120A02F07F0202FB03F37B610CE0D6
:10367000FA697B68B2FBF3F30D4AD268120A02F0D2
:103680007F0202FB03F37B6100BF094BDB685B0E2B
:1036900003F0030301335B003B607A693B68B2FBD4
:1036A000F3F3BB61BB6918462437BD4680BC704745
:1036B00000100240488700080024F40000127A003D
:1036C00080B400AF024B1B681846BD4680BC7047F3
:1036D0000000002080B586B000AF786000233B6119
:1036E0002A4B9B6D03F08053002B03D0FFF768FA41
:1036F000786114E0254B9B6D244A43F08053936519
:10370000224B9B6D03F08053FB60FB68FFF758FA78
:1037100078611E4B9B6D1D4A23F0805393657B6936
:10372000B3F5007F0BD17B68802B19D97B68A02B68
:1037300002D902233B6113E001233B6110E07B6867
:10374000802B02D903233B610AE07B68802B02D1E6
:1037500002233B6104E07B68702B01D101233B61B4
:103760000B4B1B6823F0070209493B6913430B60AD
:10377000074B1B6803F007033A699A4201D0012303
:1037800000E0002318461837BD4680BD00100240F7
:103790000020024080B586B000AF78600023FB7443
:1037A0000023BB747B681B6803F40063002B31D0DB
:1037B0007B68DB6BB3F5400F1AD0B3F5400F14D81C
:1037C000002B09D0B3F5000F0FD1AC4BDB68AB4A2F
:1037D00043F48033D3600CE07B6804330021184647
:1037E00000F0CCF90346FB7403E00123FB7400E016
:1037F00000BFFB7C002B0BD1A04BD3F8883023F407
:1038000040027B68DB6B9D491343C1F8883001E0BF
:10381000FB7CBB747B681B6803F40033002B00F057
:10382000998000237B74954B9B6D03F08053002B94
:1038300001D1012300E00023002B0DD08F4B9B6DA5
:103840008E4A43F0805393658C4B9B6D03F08053FD
:10385000BB60BB6801237B74894B1B68884A43F4B7
:1038600080731360FEF782FBF86009E0FEF77EFBD1
:103870000246FB68D31A022B02D90323FB7405E02E
:103880007F4B1B6803F48073002BEFD0FB7C002B75
:1038900055D17A4BD3F8903003F440737B617B6948
:1038A000002B1ED07B681B6D7A699A4219D0734B2E
:1038B000D3F8903023F440737B61704BD3F8903091
:1038C0006E4A43F48033C2F890306C4BD3F890309A
:1038D0006A4A23F48033C2F89030684A7B69C2F8A0
:1038E00090307B6903F00103002B16D0FEF73EFBFE
:1038F000F8600BE0FEF73AFB0246FB68D31A41F290
:103900008832934202D90323FB7406E05B4BD3F861
:10391000903003F00203002BECD0FB7C002B0BD18A
:10392000564BD3F8903023F440727B681B6D53499B
:103930001343C1F8903004E0FB7CBB7401E0FB7CD6
:10394000BB747B7C012B05D14C4B9B6D4B4A23F008
:10395000805393657B681B6803F00103002B0AD03A
:10396000464BD3F8883023F003027B681B6A434937
:103970001343C1F888307B681B6803F00203002BF7
:103980000AD03E4BD3F8883023F00C027B685B6A88
:103990003A491343C1F888307B681B6803F0200361
:1039A000002B0AD0354BD3F8883023F440627B6873
:1039B0009B6A32491343C1F888307B681B6803F463
:1039C0000073002B0AD02D4BD3F8883023F440220B
:1039D0007B685B6B29491343C1F888307B681B689F
:1039E00003F48063002B0AD0244BD3F8883023F4EF
:1039F00040127B689B6B21491343C1F888307B6878
:103A00001B6803F04003002B0AD01C4BD3F888300E
:103A100023F440527B68DB6A18491343C1F88830AD
:103A20007B681B6803F48073002B0AD0134BD3F818
:103A3000883023F440327B681B6B10491343C1F874
:103A400088307B681B6803F40053002B2CD00B4B91
:103A5000D3F8883023F040627B681B6C074913431E
:103A6000C1F888307B681B6CB3F1006F0AD1034B3F
:103A7000DB68024A43F48013D36015E00010024073
:103A8000007000407B681B6CB3F1806F0CD17B68C9
:103A900004330121184600F071F80346FB74FB7CE7
:103AA000002B01D0FB7CBB747B681B6803F4802374
:103AB000002B28D0304BD3F8883023F040627B684D
:103AC0005B6C2D491343C1F888307B685B6CB3F1A4
:103AD000006F06D1284BDB68274A43F48013D3607C
:103AE00011E07B685B6CB3F1806F0CD17B680433B1
:103AF0000121184600F042F80346FB74FB7C002BC2
:103B000001D0FB7CBB747B681B6803F48043002BF3
:103B10001CD0194BD3F8883023F040527B689B6C43
:103B200015491343C1F888307B689B6CB3F1805F03
:103B30000CD17B6804330221184600F01FF80346BD
:103B4000FB74FB7C002B01D0FB7CBB747B681B6887
:103B500003F40043002B0AD0074BD3F8883023F03E
:103B600080427B68DB6C04491343C1F88830BB7C1E
:103B700018461837BD4680BD0010024080B584B09D
:103B800000AF786039600023FB73744BDB6803F08F
:103B90000303002B18D0714BDB6803F003027B6832
:103BA0001B689A420DD17B681B68002B09D06B4BB8
:103BB000DB681B0903F007035A1C7B685B689A42A9
:103BC00047D00123FB7344E07B681B68032B18D0AC
:103BD000032B25D8012B02D0022B09D020E05F4B0C
:103BE0001B6803F00203002B1DD10123FB731AE0B5
:103BF0005A4B1B6803F48063002B16D10123FB731F
:103C000013E0564B1B6803F40033002B0FD1534BCA
:103C10001B6803F48023002B09D10123FB7306E00A
:103C20000123FB7304E000BF02E000BF00E000BF1F
:103C3000FB7B002B0DD1494BDB6823F073027B68C3
:103C400019687B685B68013B1B010B4343491343C5
:103C5000CB60FB7B002B7CD1404B1B683F4A23F0A1
:103C600080631360FEF782F9B86009E0FEF77EF921
:103C70000246BB68D31A022B02D90323FB7305E06B
:103C8000364B1B6803F00063002BEFD1FB7B002B4E
:103C90005FD13B68002B10D1304B1B6923F0784378
:103CA00023F4FE437A68926811027A68D268D206D9
:103CB0000A432A4913430B6127E03B68012B12D1C9
:103CC000264B1B6923F4C00323F4FE437A689268F1
:103CD00011027A6812695208013A52050A431F49D3
:103CE00013430B6111E01D4B1B6923F0C06323F4E8
:103CF000FE437A68926811027A6852695208013A62
:103D000052060A43154913430B61144B1B68134AAF
:103D100043F080631360FEF729F9B86009E0FEF70D
:103D200025F90246BB68D31A022B02D90323FB7381
:103D300005E00A4B1B6803F00063002BEFD0FB7B10
:103D4000002B06D1054B1A697B689B690349134315
:103D50000B61FB7B18461037BD4680BD001002404A
:103D600070B50D4D0D4C641BA4100026A64209D160
:103D70000B4D0C4C04F064FC641BA4100026A642FE
:103D800005D170BD55F8043B98470136EEE755F86C
:103D9000043B98470136F2E7888C0008888C0008BD
:103DA000888C00088C8C000802440346934200D1A2
:103DB000704703F8011BF9E72DE9F04788B0002BA5
:103DC0001F461446B8BF03F10043129A109DDDF858
:103DD0004CA0B6BF1F4600232D231370149B23F065
:103DE0002008B8F1460F05D0B8F1450F00D10135D4
:103DF000022300E0032307AA049206AACDE902A247
:103E0000CDE9003522463B4601F0AAFDB8F1470F47
:103E1000064602D1119BDB0722D5B8F1460F06EB0F
:103E2000050910D13378302B0AD100220023204617
:103E30003946FCF74DFE18B9C5F10105CAF8005026
:103E4000DAF8003099440022002320463946FCF776
:103E50003FFE08B1CDF81C903022079B4B4507D39D
:103E6000079B159A9B1B3046136008B0BDE8F0878E
:103E7000591C07911A70F0E7F7B503460029B8BF3F
:103E8000494203F8022BB4BF2D222B22092942708C
:103E90002ADD0DF10704A4460A27A6460A4691FB2F
:103EA000F7F607FB16153035632A04F1FF340EF8D8
:103EB000015C3146F1DC3031AEF1020504F8011C41
:103EC000441C294661450AD30DF10902A2EB0E02FA
:103ED000654588BF00221344181A03B0F0BD11F8DD
:103EE000012B04F8012FEDE7302330318370C170CE
:103EF000031DF1E72DE9F04F91B00C46DDF8688025
:103F000016461F46054602F083FE036809931846CD
:103F1000FCF71AFB00230E93D8F800300A90073301
:103F200023F0070303F1080294F81890D4F800B0C6
:103F3000C8F80020D3E90023C4E91223D4E9128A87
:103F40002AF000430B930B999C4B4FF0FF324046F5
:103F5000FCF7F0FD70BB994B0B994FF0FF324046D8
:103F6000FCF7CAFD30BB0022002340465146FCF757
:103F7000B9FD10B12D2384F84330914B9148B9F12C
:103F8000470F94BF98468046032323612BF0040318
:103F900023604FF0000A009733460FAA21462846B7
:103FA00000F0D2F9013040F08F804FF0FF3011B0B7
:103FB000BDE8F08F4246534640465146FCF7BAFDF5
:103FC00040B1BAF1000FBCBF2D2384F843307E48C6
:103FD0007E4BD4E763685A1C09F0DF0142D1062307
:103FE0006360002206920EAACDE904920DAA4BF45A
:103FF000806303920DF13302CDE9013223606368DF
:1040000000934246534628460B91FFF7D5FE0B9985
:10401000472980460D9908D1C81C02DB6368994284
:1040200040DDA9F102095FFA89F9B9F1650F1FD8DE
:1040300001394A4604F150000D91FFF71DFF0E9A19
:104040001318012A8246236102DC2268D20701D5B7
:10405000013323619DF83330002B9CD02D2384F84D
:10406000433098E74729BCD1002BBAD10123B7E7E9
:10407000B9F1660F18D1002963680BDD216113B90E
:104080002268D00702D501330B442361A1654FF0AC
:10409000000ADFE713B92268D20701D50233F4E73B
:1040A0000123F2E74FF067090E9B994205DB236875
:1040B0002161D807EAD54B1CE7E70029D4BFC1F13D
:1040C000020201221344E0E723685A0507D423695A
:1040D000424631462846B84701302BD165E7B9F151
:1040E000650F40F2DC80D4E9120100220023FCF7C6
:1040F000EFFC002833D0364A012331462846B84722
:1041000001303FF452AFDDE90D239A4202DB236810
:10411000D8070FD5DDE9092331462846B8470130D5
:104120003FF443AF4FF0000804F11A090E9B013B26
:10413000434509DC23689B0700F10181E0680F9B80
:104140009842B8BF184632E701234A46314628460E
:10415000B84701303FF429AF08F10108E6E70D9BAD
:10416000002B37DC1A4A012331462846B847013074
:104170003FF41BAFDDE90D23134302D12368D907B8
:10418000D8D5DDE9092331462846B84701303FF448
:104190000CAF4FF0000904F11A0A0D9B5B424B452E
:1041A00001DC0E9B94E70123524631462846B8476E
:1041B00001303FF4FAAE09F10109EEE7FFFFEF7FAE
:1041C0007C870008808700088887000884870008AB
:1041D0008C8700080E9AA36D9A42A8BF1A46002A3F
:1041E000914637DC4FF0000B29EAE97904F11A0215
:1041F000D4F858A0AAEB09035B4533DCDDE90D23B5
:104200009A423BDB2368DA0738D40E9A0D99A2EB69
:104210000A03A2EB01099945A8BF9946B9F1000F1D
:1042200034DC4FF0000829EAE97904F11A0ADDE9E3
:104230000D239B1AA3EB090343457FF77BAF0123B3
:10424000524631462846B84701303FF4AEAE08F139
:104250000108ECE71346314642462846B84701308C
:10426000C0D1A2E60123314628460B92B84701305F
:104270003FF49BAE0B9A0BF1010BB9E7DDE9092383
:1042800031462846B8470130BFD18EE64B4608EB91
:104290000A0231462846B8470130C2D185E60E9A57
:1042A000012A01DCDB0737D5012342463146284687
:1042B000B84701303FF479AEDDE90923314628469D
:1042C000B84701303FF471AED4E912010022002357
:1042D000FCF7FEFBD8B90E9B08F10102013B314609
:1042E0002846B84701300ED15FE601234A463146E1
:1042F0002846B84701303FF458AE08F101080E9B3C
:10430000013B4345F1DC534604F15002E1E64FF036
:10431000000804F11A09F2E701234246DFE701230E
:104320004A4631462846B84701303FF43EAE08F1D0
:104330000108E3680F995B1A4345F0DCFEE64FF095
:10434000000804F11909F4E72DE9F04716469946EB
:104350008A680B69DDF820809342B8BF134633604A
:1043600091F8432007460C460AB1013333602368B5
:10437000990642BF336802333360256815F006059D
:1043800006D104F1190AE36832689B1AAB4226DCB5
:1043900094F84320131E226818BF012392062BD4E1
:1043A00004F1430249463846C04701301ED0236815
:1043B000E568326803F00603042B08BFAD1AA36852
:1043C00022690CBF25EAE57500259342C4BF9B1AFC
:1043D000ED1800261A34B5421AD1002008E0012356
:1043E000524649463846C047013003D14FF0FF30AE
:1043F000BDE8F0870135C6E7E1185A1C302081F886
:104400004300224494F8451082F843100233C7E772
:104410000123224649463846C0470130E6D00136DE
:10442000D9E700002DE9FF470C469146277E0C99FD
:10443000782F80469A4604F1430207D8622F0AD8A3
:10444000002F00F0D880582F00F0A38004F142061E
:1044500084F842703AE0A7F16303152BF6D801A067
:1044600050F823F0BD440008D14400084D44000832
:104470004D4400084D4400084D440008D144000854
:104480004D4400084D4400084D4400084D440008C8
:10449000DD45000801450008BF4500084D440008FF
:1044A0004D440008FF4500084D4400080145000840
:1044B0004D4400084D440008C74500080B681A1D0C
:1044C0001B680A6004F1420684F842300123A3E02D
:1044D000256808682E0600F104030AD505680B60FC
:1044E000002D03DA2D236D4284F843305E480A2301
:1044F00019E015F0400F05680B6018BF2DB2EFE70B
:104500000B682568181D0860280601D51D6802E0A3
:104510006906FBD51D8854486F2F0CBF08230A235A
:10452000002184F843106668A660002EA2BF2168AF
:1045300021F0040121600DB9002E4DD01646B5FBC7
:10454000F3F103FB1157C75D06F8017D2F46BB420F
:104550000D46F4D9082B0BD12368DF0708D5236952
:1045600061689942DEBF302306F8013C06F1FF3650
:10457000921B2261CDF800A04B4603AA214640467B
:10458000FFF7E2FE01304CD14FF0FF3004B0BDE840
:10459000F087354884F8457023680E681F0656F882
:1045A000045B0E6014D5D90744BF43F02003236099
:1045B0001DB9236823F0200323601023B0E723688C
:1045C00043F0200323607823284884F84530E3E74C
:1045D0005E0648BFADB2E6E71646BBE70B68266845
:1045E00060691D1D0D6035061B6801D5186002E06D
:1045F0007106FBD51880002323611646BAE70B68C5
:104600001A1D0A601E68626800213046FBF7A8FF89
:1046100008B1801B606063682361002384F8433025
:10462000A8E72369324649464046D0470130ABD01F
:1046300023689B0713D4E068039B9842B8BF1846D1
:10464000A4E70123324649464046D04701309BD07B
:104650000135E36803995B1AAB42F2DCEBE7002516
:1046600004F11906F5E700BF8E8700089F87000850
:104670002DE9F04F87B0174603938B685A1EB2F5A9
:10468000AE7F83BF6FF4AE755B190293002386BFC4
:1046900040F25D138B6002930B688B46002543F458
:1046A000F0634BF81C3BCDE9045580460C465E4652
:1046B000AA46A9460195A26852B13B681B784E2BC9
:1046C00064D8402B3CD8A3F12B01C8B20E283AD9AC
:1046D000B9F1000F03D0236823F4807323600AF13B
:1046E000FF3ABAF1010F00F213815E4500F2058135
:1046F0000125284607B0BDE8F08FA3F161020D2A1D
:10470000E6D801A151F822F047480008D146000838
:10471000D1460008D1460008A74800087F48000895
:10472000D1460008D146000855480008D146000887
:10473000D1460008D1460008D14600080D480008BF
:10474000A3F14102DBE70E29C2D801A050F821F005
:10475000FF470008D1460008FF47000893480008BB
:10476000D1460008AD470008E9470008E9470008BE
:10477000E9470008E9470008E9470008E947000859
:10478000E9470008E9470008E94700086E2B09D807
:10479000602BB2D8542B77D0592B99D1072D97D1B4
:1047A000082529E0742B6FD0792BF6E72168C8051E
:1047B0001AD5029B21F08001216009F101091BB18A
:1047C000013B01320293A260A368013BA36023690D
:1047D000013323617B68013B002B7B6040F38480C5
:1047E0003B6801333B6066E71AEB050F7FF470AF5F
:1047F000226822F4C072226006F8013BE4E72268D6
:1048000010067FF565AF22F08002F4E7BAF1000FE1
:104810000ED1B9F1000F0ED1226802F4E061B1F5BA
:10482000E06F08D122F4F06222604FF0010AE3E762
:10483000BAF1020F55D0012D02D0042D7FF448AFFC
:104840000135EDB2D8E7BAF1010F7FF441AF4FF077
:10485000020AD1E77DB9B9F1000F7FF43CAF2268BD
:1048600002F4E061B1F5E06F7FF439AF22F4F06259
:1048700022600125C0E7032DE2D0052DDEE7022DE1
:104880007FF426AF0325B7E7062D7FF421AF072578
:10489000B2E7226891057FF51BAF22F420722260F7
:1048A000CDF80490A8E7226802F4A061B1F5806F0A
:1048B00006D050057FF50CAFB9F1000F3FF40FAFF4
:1048C000910558BF019922F4F06258BFA9EB01018C
:1048D00042F4C07258BFCDE9041622604FF00009BF
:1048E0008AE74FF0030A87E7D4F88031394640461B
:1048F000984700283FF4DFAEEAE6D4F87C3116F89A
:10490000011D3A46404698472369013B2361ECE686
:104910006B1E062B25D8022D36D85E457FF6E8AEF5
:10492000D4F87C3116F8011D3A4640469847236971
:10493000013B2361F1E70298D4F87C3110F8011DA6
:1049400002903A46404698472369013B23610AF1A9
:10495000FF3A5FFA8AFABAF1020FECD1033DEDB2E9
:10496000761B2368DA052FD55B0510D55E457FF6EB
:10497000BFAED4F87C3116F8011D3A464046984740
:104980002369013B2361F1E7AA460296DFE716F8A7
:10499000011C2369652903F1FF3306F1FF3523610B
:1049A0000CD045290AD0D4F87C313A464046984785
:1049B000236916F8021C013BB51E2361D4F87C3133
:1049C0003A46404698472E46256815F0100559D1BD
:1049D0003570236803F4C063B3F5806F1CD1019B6D
:1049E0004B45A3EB090224D100225946404600F072
:1049F0009BFED4F800C0039B1CF0020F1B68064608
:104A00000F4621D003991A1D0A601B68C3E900678D
:104A1000E3680133E3606CE6049B002BE4D0059966
:104A20000A232A460131404600F00AFF049B059EF6
:104A3000C21A04F26F139E4228BF04F5B7761249DA
:104A4000304600F029F8CFE71CF0040F03F1040E04
:104A500003D00399C1F800E0D7E7039AC2F800E059
:104A6000D3F8008002460B46FCF764F828B10748EB
:104A700000F00EF8C8F80000CAE730463946FCF7E7
:104A8000B7F8F7E7002534E6B0870008208C000867
:104A9000004870470000C07F0EB400B59CB01DAB4D
:104AA000029006906FF0004109480791049109496E
:104AB00053F8042B05910068019302A902F09AFEB5
:104AC000029B00221A701CB05DF804EB03B0704723
:104AD000040000200802FFFF10B56AB101398418F4
:104AE00010F8013B11F8012F934203D1A04201D0ED
:104AF000002BF5D1981A10BD1046FCE72DE9F041C6
:104B00000F46904602F01CFC04460D46B8F1000F1B
:104B100011D0C7F30A53C3F16B03002B0BDD1B0548
:104B200003F17F55002405F5401522462B46FBF77F
:104B300067FD04460D4620462946BDE8F081000089
:104B40002DE9F04FA1B09B4600231C93A14B179277
:104B50001F68824638460E46FBF7F6FC4FF0000809
:104B600004464FF000091B961B9B1A782B2A4CD049
:104B70003AD80D2A33D8082A33D8002A3DD000234A
:104B80000C931B9D2B78302B40F0AF806B7803F09B
:104B9000DF03582B6CD10C9B01931CAB00938E4A06
:104BA000CDF808B01DAB1BA9504601F035FD10F043
:104BB0000706044605D0062E29D1013500231B9592
:104BC0000C93179B002B40F096850C9BD3B142466B
:104BD00009F100431046194621B0BDE8F08F202AA4
:104BE000CDD101331B93BFE72D2AC8D101220C92EE
:104BF0005A1C1B925B78002BC3D1179B1B96002B72
:104C000040F0778542464B46E4E70022EFE71C9AE6
:104C10003AB135211EA802F097FC1C99504602F0CB
:104C200063F8013E052E07D8DFE806F00E0B181DCD
:104C30000E034FF00009C8462107C2D549F00049CC
:104C4000BFE7DDE91E89F7E7DDE91E831D9A23F43E
:104C5000801302F2334243EA0259EDE7DFF87C9118
:104C60004FF00008E8E76FF000494FF0FF38E3E746
:104C70001B9B5A1C1B925B78302BF9D0002BA0D0C9
:104C8000012307931B9B08930023CDE905339B4623
:104C90000A221B980578A5F13003D9B2092926D933
:104CA00022463946FFF718FF002832D000202B4655
:104CB0005C4604900246652B01D0452B13D11CB9EC
:104CC000079B034399D000241B9E731C1B9373788E
:104CD0002B2B78D02D2B7BD00027A3F13001092975
:104CE00040F282801B9600259EE00023C9E7BBF1BD
:104CF000080FD5BF0699059902FB013302FB01336A
:104D000000F10100D4BF069305930BF1010B1B903A
:104D1000BFE71B9B1A191B921B5DBBF1000F36D01E
:104D200004905C46A3F13002092A12D90122C2E79D
:104D30001B9B5A1C1B925B780130302BF8D0A3F1DF
:104D40003102082A00F2DC841B9A049000200892A9
:104D50000446303B00F1010213D004991144049140
:104D6000224605190A21AA4213D12218082A04F161
:104D7000010404441BDC06990A2202FB013306935A
:104D800000221B9B591C1B915B781046CAE75846B2
:104D9000D3E7082A04DC069F4F4306970132E2E777
:104DA000571C102FDEBF059F4F430597F6E7102CC9
:104DB000DFBF05990A2202FB01330593E0E70023D8
:104DC000049301227CE70027B31C1B93B37884E78C
:104DD0000127F9E7408A0008B88700080000F07F43
:104DE0001B9B591C1B915B78302BF9D0A3F131012F
:104DF00008293FF678AFA3F1300C1B9B09934FF0C5
:104E00000A0E1B9B591C1B915B78A3F13005092DE1
:104E100035D9099D491B082944F61F6502DC654503
:104E2000A8BF654607B16D42002C4CD107990143DC
:104E30007FF4C7AE002A7FF4E0AE692B26D023DCD6
:104E4000492B23D04E2B7FF4D8AE9C491BA801F0F0
:104E50002FFE00283FF4D1AE1B9B1B78282B2CD1B2
:104E600097491EAA1BA801F037FE052825D11F9BD4
:104E7000DDF8788043F0FF4949F4E009A1E60EFB34
:104E80000C3CACF1300CBCE76E2BDCE78D491BA869
:104E900001F00EFE00283FF4B0AE1B9B8A49013B97
:104EA0001BA81B9301F004FE10B91B9B01331B933D
:104EB000DFF824924FF0000883E6844802F09AFD60
:104EC000804689467DE6049B0698EB1ABBF1000FED
:104ED00008BFA346102C07932646A8BF1026FBF751
:104EE000B9FA092C8046894613DD794B03EBC603DA
:104EF00053E91223FBF784FB804605988946FBF7AC
:104F0000A9FA02460B4640464946FBF767F9804638
:104F100089460F2C36DC079B002B3FF452AE22DD76
:104F2000162B09DC6A4C04EBC304D4E900014246A9
:104F30004B46FBF765FBC3E7079AC4F12503934291
:104F400020DB634DC4F10F0405EBC40142464B4620
:104F5000D1E90001FBF754FB079B1C1B05EBC405C3
:104F6000D5E90023E5E7079B16330BDB049B584A82
:104F70005D1B02EBC505D5E9002340464946FBF71A
:104F800069FC9DE7079BA61B1E44002E71DD16F0F1
:104F90000F030AD04E4901EBC30142464B46D1E90B
:104FA0000001FBF72DFB8046894636F00F0650D0F6
:104FB000B6F59A7F27DD4FF0000BCDF810B0CDF895
:104FC00020B0CDF818B02223DFF80C91CAF80030D9
:104FD0004FF00008089B002B3FF4F3AD1C9950469E
:104FE00001F082FE0699504601F07EFE049950467B
:104FF00001F07AFE0899504601F076FE5946504677
:1050000001F072FEDDE500233611404649461F4699
:10501000012E21DC0BB1804689462E4BA9F1547933
:1050200003EBC70742464B46D7E90001FBF7E8FA16
:10503000294B0A460B4029498B428046BBD8A1F533
:1050400080118B4286BFDFF898904FF0FF3802F155
:105050005479002305937EE0F20707D51D4B03EB3F
:10506000C703D3E90023FBF7CBFA012301377610FE
:10507000CEE7EED0764216F00F020AD0144B03EBC7
:10508000C20340464946D3E90023FBF7E3FB8046D1
:1050900089463611DDD01F2E24DD4FF0000BCDF8F0
:1050A00010B0CDF820B0CDF818B022234FF0000892
:1050B0004FF00009CAF800308CE700BF898700086C
:1050C000CC870008818700080C890008208C000824
:1050D000008B0008D88A00080000F07F0000A07C48
:1050E000FFFFEF7F16F0100318BF6A23B34F05933D
:1050F000404649460023F20704D5D7E90023FBF7D1
:105100007FFA0123761007F10807F4D10BB180462E
:105110008946059BBBB1C9F30A53C3F16B03002B4E
:10512000494610DD1F2B40F32881342BDEBF203B86
:105130004FF0FF3202FA03F34FF00008CCBF4FF0FC
:105140005C7903EA01090022002340464946FBF747
:10515000BFFC0028A1D1069B0093089923465A461C
:10516000504601F02DFE089000283FF424AF049B28
:105170005D1B079B002BB4BF2B4600230E93079BA0
:105180004FF0000B23EAE3731693CDF810B0089BA1
:105190005046596801F068FD069000283FF413AFAF
:1051A000089B1A69023203F10C0192000C3001F0E5
:1051B0004DFD1EAB01931DAB009342464B4650463E
:1051C000CDE90A8902F036F91C9000283FF4FBAEC5
:1051D0000121504601F08CFE0490034600283FF464
:1051E000F2AE1D9D1E9A002DABBF0E9B169B169C0A
:1051F0000E9EACBFEE185C1B059BED1A1544704B60
:10520000013D9D42C2F1360280F2C9805B1B1F2B1B
:10521000A2EB03024FF0010700F3B68007FA03F395
:105220000F930025B718059BBE4214441C44334617
:10523000A8BF3B46A342A8BF2346002BC2BFFF1A0C
:10524000E41AF61A0E9B002B17DD04991A465046F5
:1052500001F00AFF049000283FF4B5AE01461C9A05
:10526000504601F05BFE099000283FF4ACAE1C995B
:10527000504601F039FD099B1C93002F00F39380E9
:10528000079B002B08DD169A0699504601F0ECFEAC
:10529000069000283FF497AE002C08DD06992246C0
:1052A000504601F03BFF069000283FF48CAE002EE4
:1052B00008DD04993246504601F030FF0490002882
:1052C0003FF481AE069A1C99504601F0AFFF834629
:1052D00000283FF478AE0024C3680499C4600D939D
:1052E00001F088FFA04271DA0D9B53EA080340F0F9
:1052F0009780C9F31303002B40F0928029F00043FC
:105300001B0D1B05B3F1D66F40F28A80DBF8143019
:1053100023B9DBF81030012B40F38280594601227B
:10532000504601F0FBFE0499834601F063FF00281C
:1053300076DD0599234A4B46002900F0928002EA67
:105340000901B1F1D66F00F38C80B1F15C7F7FF77A
:10535000ACAE1D4A0023CDE914324046DDE91423EA
:105360004946FBF74DF90B46034308BF222380460D
:10537000894608BFCAF8003030E64FF0FF3202FA23
:1053800003F303EA0808DEE6C5F17F4505F57F056E
:1053900005F57B45E23507FA05F50F9742E701234E
:1053A00000250F933EE71C993A46504601F0B6FEA1
:1053B0001C9000287FF464AF05E600BFE08700087A
:1053C00002FCFFFF0000F07F00005039CDF8249070
:1053D00066D10D9AC9F313035AB39D4A93422CD157
:1053E000059B404603B39B4A4B461A40B2F1D46F2B
:1053F0004FF0FF311BD8120DC2F16B0301FA03F31A
:1054000098421AD1944B099A9A4202D101303FF442
:10541000DAAD904B099A1A4002F580194FF0000856
:10542000059B002B95D1D9E54FF0FF33E8E70B46FC
:10543000E6E753EA08033FF47CAFE5B1099B1D4260
:10544000EED00D9B059A40464946C3B1FFF756FB87
:1054500002460B46DDE90A01FAF7C0FE804689469E
:10546000DEE71340A3F580136FEA13596FEA095979
:105470004FF0FF38D4E70F9B13EA080FE0E7FFF780
:105480003DFB02460B46DDE90A01FAF7A5FE0022C4
:10549000002380468946FBF71BFB0028C0D004E6AA
:1054A0000499584602F022F800224FF08043064645
:1054B0000F46FBF721FB002875D00D9B002B47D032
:1054C000664F0026654D099B23F000431B0D1B050D
:1054D0000F930F9A624B9A4240F0CA80DDE90A238B
:1054E000CDE91423099BA3F154794046494601F0C4
:1054F00027FF02460B4630463946FBF781F8424605
:105500004B46FAF76BFE0B465249564A19409142F8
:1055100080465ED90B9B02F15472934203D10A9BE1
:1055200001333FF450ADDFF830914FF0FF381C9954
:10553000504601F0D9FB0699504601F0D5FB04997D
:10554000504601F0D1FB5946504601F0CDFB1EE616
:10555000B8F1000F19D1099BC3F31303E3B93F4B13
:10556000002230463946FBF7BDFAC8B93E4B00224F
:1055700030463946FBF744F804460D4605F1004332
:1055800018941993DDE918679DE7B8F1010F03D16D
:10559000099B002B3FF489AD344F0026002491E78E
:1055A0000D9C314DEAE7304B002230463946FBF77F
:1055B00027F80D9B04460D4633B901F100431090C6
:1055C0001193DDE910677EE702460B46CDE9102313
:1055D000F7E703F15479059B002BA8D129F000438C
:1055E0000F9A1B0D1B059A42A1D120462946FBF7B5
:1055F0004FFBFAF77BFF02460B4620462946FAF797
:10560000EBFD0D9AC9F3130343EA08031343044661
:105610000D4668D00AA3D3E90023FBF763FA0028FC
:105620007FF4DCAC08A3D3E9002320462946FBF72E
:1056300077FA00283FF47BAFD0E400BFAFF30080DF
:105640009535A094FFFFDF3F35E5AF350000E03F23
:10565000FFFF0F000000F07FFFFFEF7F0000F03F33
:105660000000E07FFFFF9F7C0000E03F0000F0BFF4
:10567000059B13B30F9BB3F1D46F1ED826A3D3E9B8
:10568000002320462946FBF737FA90B129462046E9
:10569000FBF78EFA012838BF0120FAF7DBFE0D9BDD
:1056A00004460D46D3B901F1004312901393DDE98E
:1056B00012670F9A07F1D6639F1ADDE90A0101F01C
:1056C0003FFE02460B4630463946FAF799FFDDE9C0
:1056D0000A23FAF783FD804689467CE702460B469B
:1056E000CDE91223E3E70EA3D3E90023FBF7FAF990
:1056F0009FE700230C93179A1B9B1360FFF765BA73
:10570000652B3FF45CAB452B3FF459AB0122FFF70F
:105710008DBB00BFAFF300800000C0FFFFFFDF4183
:105720009535A094FFFFCF3F014BFFF709BA00BFAB
:105730006C000020012B2DE9F047864601D0242B78
:1057400006D900F0FBFE162303600020BDE8F087B9
:105750003A4E8C4660461CF8014BA55D15F00805D5
:10576000F8D12D2C33D19CF800404FF0010800F106
:10577000020C002B5DD0102B0CD1302C0AD19CF8E0
:10578000000000F0DF0058284ED19CF801401023A3
:105790000CF1020C08F10047013F0025B7FBF3F9BB
:1057A000284603FB197AA4F13006092E18D834468E
:1057B000A34224DD002D1FDB81451DD301D1A2456D
:1057C0001ADB00FB034001251CF8014BEBE72B2CF7
:1057D00008BF9CF80040A84608BF00F1020CC8E7CB
:1057E000A4F14106192E01D8373CE1E7A4F1610686
:1057F000192E04D8573CDBE74FF0FF35E4E7002DC6
:1058000008DA2223CEF800303846002A9ED00CF168
:10581000FF3107E0B8F1000F00D04042002A95D0D8
:10582000002DF4D1116091E73024002BB2D1082370
:10583000B0E7302CA3D00A23ACE700BF09880008EA
:10584000FFF778BF2DE9F74F03690C69A3420746BC
:10585000C0F28180013C01F1140800F1140505EB50
:105860008403019358F8243055F8242001339A42D8
:105870004FEA840B08EB8409B2FBF3F631D34FF007
:10588000000E4046AC46F24650F8042B93B206FB9D
:1058900003E34FEA134E9BB2AAEB0303120CDCF8AE
:1058A00000A006FB02E213FA8AF34FEA124E1FFA37
:1058B00082FADCF80020CAEB124202EB23429BB2D0
:1058C00043EA024381454CF8043B4FEA224ADBD2CB
:1058D00055F80B302BB9019B043B9D421A462ED341
:1058E0003C61384601F086FC002824DB013628465E
:1058F0004FF0000C58F8042BD0F800E093B2ACEB5A
:105900000303120C13FA8EF3C2EB1E4202EB234286
:105910009BB243EA0243C14540F8043B4FEA224CA4
:10592000E8D255F8242005EB840322B9043B9D42BC
:105930001A460AD33C61304603B0BDE8F08F1268C6
:10594000043B002ACCD1013CC7E71268043B002A83
:10595000F0D1013CEBE70020EEE700000000000082
:105960002DE9F04F446A99B016461F46CDE9046709
:10597000DDF89480054674B9102001F04DF9024617
:10598000686220B9A84BEA21A84802F057F8C0E99C
:1059900001440460C4606B6A196851B15A684A6076
:1059A000012393408B60284601F09EF96B6A002228
:1059B0001A603B1EB9BF23F0004305930023C8F8CB
:1059C0000030DDF814909A4BBCBF0122C8F80020CB
:1059D00033EA090319D1249A42F20F731360C9F311
:1059E0001303334300F08185269B53B9914B22E08A
:1059F000914B08930833269A1360089819B0BDE8B4
:105A0000F08F8C4B08930333F5E7DDE90434CDE9DF
:105A10000C34DDE90C0100220023FBF759F8804625
:105A200058B1249A01231360269B002B00F05A855D
:105A300082481860431E0893DFE716AB019317AB4B
:105A400000932846DDE90C2301F0F4FCC9F30A5465
:105A50008246002C7ED00D9BCDF84C80C3F31303FF
:105A6000DDE90C0143F07F5141F44011A4F2FF3411
:105A7000734B0022FAF7B0FB65A3D3E90023FAF7D2
:105A8000BFFD65A3D3E90023FAF7A8FB064620462D
:105A90000F46FAF7EFFC62A3D3E90023FAF7B0FD53
:105AA00002460B4630463946FAF798FB06460F4643
:105AB000FBF756F800228146002330463946FBF7B3
:105AC00011F848B14846FAF7D5FC32463B46FAF79A
:105AD000FFFF08B909F1FF39B9F1160F57D8594B33
